{
  "contractName": "School",
  "abi": [
    {
      "inputs": [],
      "stateMutability": "nonpayable",
      "type": "constructor"
    },
    {
      "inputs": [
        {
          "internalType": "address",
          "name": "_address",
          "type": "address"
        },
        {
          "internalType": "string",
          "name": "_name",
          "type": "string"
        }
      ],
      "name": "addStudent",
      "outputs": [],
      "stateMutability": "nonpayable",
      "type": "function"
    },
    {
      "inputs": [
        {
          "internalType": "address",
          "name": "_address",
          "type": "address"
        },
        {
          "internalType": "uint256",
          "name": "_points",
          "type": "uint256"
        },
        {
          "internalType": "enum School.Fields",
          "name": "_field",
          "type": "uint8"
        }
      ],
      "name": "addGrade",
      "outputs": [],
      "stateMutability": "nonpayable",
      "type": "function"
    },
    {
      "inputs": [
        {
          "internalType": "address",
          "name": "_address",
          "type": "address"
        }
      ],
      "name": "getStudentGrades",
      "outputs": [
        {
          "components": [
            {
              "internalType": "uint256",
              "name": "points",
              "type": "uint256"
            },
            {
              "internalType": "enum School.Fields",
              "name": "field",
              "type": "uint8"
            }
          ],
          "internalType": "struct School.Grade[]",
          "name": "",
          "type": "tuple[]"
        }
      ],
      "stateMutability": "view",
      "type": "function",
      "constant": true
    },
    {
      "inputs": [],
      "name": "getGrades",
      "outputs": [
        {
          "components": [
            {
              "internalType": "uint256",
              "name": "points",
              "type": "uint256"
            },
            {
              "internalType": "enum School.Fields",
              "name": "field",
              "type": "uint8"
            }
          ],
          "internalType": "struct School.Grade[]",
          "name": "",
          "type": "tuple[]"
        }
      ],
      "stateMutability": "view",
      "type": "function",
      "constant": true
    },
    {
      "inputs": [
        {
          "internalType": "address",
          "name": "_address",
          "type": "address"
        }
      ],
      "name": "getStudent",
      "outputs": [
        {
          "components": [
            {
              "internalType": "string",
              "name": "name",
              "type": "string"
            },
            {
              "components": [
                {
                  "internalType": "uint256",
                  "name": "points",
                  "type": "uint256"
                },
                {
                  "internalType": "enum School.Fields",
                  "name": "field",
                  "type": "uint8"
                }
              ],
              "internalType": "struct School.Grade[]",
              "name": "grades",
              "type": "tuple[]"
            }
          ],
          "internalType": "struct School.Student",
          "name": "",
          "type": "tuple"
        }
      ],
      "stateMutability": "view",
      "type": "function",
      "constant": true
    }
  ],
  "bytecode": "0x608060405234801561001057600080fd5b50336000806101000a81548173ffffffffffffffffffffffffffffffffffffffff021916908373ffffffffffffffffffffffffffffffffffffffff160217905550336000806101000a81548173ffffffffffffffffffffffffffffffffffffffff021916908373ffffffffffffffffffffffffffffffffffffffff160217905550611311806100a06000396000f3fe608060405234801561001057600080fd5b50600436106100575760003560e01c80635e8b80911461005c5780636b7b44d714610078578063b49595c9146100a8578063b77ea2d7146100c4578063ffa4753b146100e2575b600080fd5b61007660048036038101906100719190610bc1565b610112565b005b610092600480360381019061008d9190610c1d565b61024a565b60405161009f9190610e84565b60405180910390f35b6100c260048036038101906100bd9190610ef7565b6103d9565b005b6100cc610617565b6040516100d99190610fb9565b60405180910390f35b6100fc60048036038101906100f79190610c1d565b6106fb565b6040516101099190610fb9565b60405180910390f35b60008054906101000a900473ffffffffffffffffffffffffffffffffffffffff1673ffffffffffffffffffffffffffffffffffffffff163373ffffffffffffffffffffffffffffffffffffffff16146101a0576040517f08c379a00000000000000000000000000000000000000000000000000000000081526004016101979061105e565b60405180910390fd5b600015156101ad8361086f565b1515146101ef576040517f08c379a00000000000000000000000000000000000000000000000000000000081526004016101e6906110ca565b60405180910390fd5b80600160008473ffffffffffffffffffffffffffffffffffffffff1673ffffffffffffffffffffffffffffffffffffffff168152602001908152602001600020600001908051906020019061024592919061094c565b505050565b6102526109d2565b600160008373ffffffffffffffffffffffffffffffffffffffff1673ffffffffffffffffffffffffffffffffffffffff1681526020019081526020016000206040518060400160405290816000820180546102ac90611119565b80601f01602080910402602001604051908101604052809291908181526020018280546102d890611119565b80156103255780601f106102fa57610100808354040283529160200191610325565b820191906000526020600020905b81548152906001019060200180831161030857829003601f168201915b5050505050815260200160018201805480602002602001604051908101604052809291908181526020016000905b828210156103ca5783829060005260206000209060020201604051806040016040529081600082015481526020016001820160009054906101000a900460ff1660028111156103a5576103a4610d17565b5b60028111156103b7576103b6610d17565b5b8152505081526020019060010190610353565b50505050815250509050919050565b60008054906101000a900473ffffffffffffffffffffffffffffffffffffffff1673ffffffffffffffffffffffffffffffffffffffff163373ffffffffffffffffffffffffffffffffffffffff1614610467576040517f08c379a000000000000000000000000000000000000000000000000000000000815260040161045e9061105e565b60405180910390fd5b600115156104748461086f565b1515146104b6576040517f08c379a00000000000000000000000000000000000000000000000000000000081526004016104ad90611197565b60405180910390fd5b60008210156104fa576040517f08c379a00000000000000000000000000000000000000000000000000000000081526004016104f190611229565b60405180910390fd5b601482111561053e576040517f08c379a0000000000000000000000000000000000000000000000000000000008152600401610535906112bb565b60405180910390fd5b6000604051806040016040528084815260200183600281111561056457610563610d17565b5b8152509050600160008573ffffffffffffffffffffffffffffffffffffffff1673ffffffffffffffffffffffffffffffffffffffff1681526020019081526020016000206001018190806001815401808255809150506001900390600052602060002090600202016000909190919091506000820151816000015560208201518160010160006101000a81548160ff0219169083600281111561060a57610609610d17565b5b0217905550505050505050565b6060600160003373ffffffffffffffffffffffffffffffffffffffff1673ffffffffffffffffffffffffffffffffffffffff168152602001908152602001600020600101805480602002602001604051908101604052809291908181526020016000905b828210156106f25783829060005260206000209060020201604051806040016040529081600082015481526020016001820160009054906101000a900460ff1660028111156106cd576106cc610d17565b5b60028111156106df576106de610d17565b5b815250508152602001906001019061067b565b50505050905090565b606060008054906101000a900473ffffffffffffffffffffffffffffffffffffffff1673ffffffffffffffffffffffffffffffffffffffff163373ffffffffffffffffffffffffffffffffffffffff161461078b576040517f08c379a00000000000000000000000000000000000000000000000000000000081526004016107829061105e565b60405180910390fd5b600160008373ffffffffffffffffffffffffffffffffffffffff1673ffffffffffffffffffffffffffffffffffffffff168152602001908152602001600020600101805480602002602001604051908101604052809291908181526020016000905b828210156108645783829060005260206000209060020201604051806040016040529081600082015481526020016001820160009054906101000a900460ff16600281111561083f5761083e610d17565b5b600281111561085157610850610d17565b5b81525050815260200190600101906107ed565b505050509050919050565b600080600160008473ffffffffffffffffffffffffffffffffffffffff1673ffffffffffffffffffffffffffffffffffffffff16815260200190815260200160002060000180546108bf90611119565b80601f01602080910402602001604051908101604052809291908181526020018280546108eb90611119565b80156109385780601f1061090d57610100808354040283529160200191610938565b820191906000526020600020905b81548152906001019060200180831161091b57829003601f168201915b505050505090506000815111915050919050565b82805461095890611119565b90600052602060002090601f01602090048101928261097a57600085556109c1565b82601f1061099357805160ff19168380011785556109c1565b828001600101855582156109c1579182015b828111156109c05782518255916020019190600101906109a5565b5b5090506109ce91906109ec565b5090565b604051806040016040528060608152602001606081525090565b5b80821115610a055760008160009055506001016109ed565b5090565b6000604051905090565b600080fd5b600080fd5b600073ffffffffffffffffffffffffffffffffffffffff82169050919050565b6000610a4882610a1d565b9050919050565b610a5881610a3d565b8114610a6357600080fd5b50565b600081359050610a7581610a4f565b92915050565b600080fd5b600080fd5b6000601f19601f8301169050919050565b7f4e487b7100000000000000000000000000000000000000000000000000000000600052604160045260246000fd5b610ace82610a85565b810181811067ffffffffffffffff82111715610aed57610aec610a96565b5b80604052505050565b6000610b00610a09565b9050610b0c8282610ac5565b919050565b600067ffffffffffffffff821115610b2c57610b2b610a96565b5b610b3582610a85565b9050602081019050919050565b82818337600083830152505050565b6000610b64610b5f84610b11565b610af6565b905082815260208101848484011115610b8057610b7f610a80565b5b610b8b848285610b42565b509392505050565b600082601f830112610ba857610ba7610a7b565b5b8135610bb8848260208601610b51565b91505092915050565b60008060408385031215610bd857610bd7610a13565b5b6000610be685828601610a66565b925050602083013567ffffffffffffffff811115610c0757610c06610a18565b5b610c1385828601610b93565b9150509250929050565b600060208284031215610c3357610c32610a13565b5b6000610c4184828501610a66565b91505092915050565b600081519050919050565b600082825260208201905092915050565b60005b83811015610c84578082015181840152602081019050610c69565b83811115610c93576000848401525b50505050565b6000610ca482610c4a565b610cae8185610c55565b9350610cbe818560208601610c66565b610cc781610a85565b840191505092915050565b600081519050919050565b600082825260208201905092915050565b6000819050602082019050919050565b6000819050919050565b610d1181610cfe565b82525050565b7f4e487b7100000000000000000000000000000000000000000000000000000000600052602160045260246000fd5b60038110610d5757610d56610d17565b5b50565b6000819050610d6882610d46565b919050565b6000610d7882610d5a565b9050919050565b610d8881610d6d565b82525050565b604082016000820151610da46000850182610d08565b506020820151610db76020850182610d7f565b50505050565b6000610dc98383610d8e565b60408301905092915050565b6000602082019050919050565b6000610ded82610cd2565b610df78185610cdd565b9350610e0283610cee565b8060005b83811015610e33578151610e1a8882610dbd565b9750610e2583610dd5565b925050600181019050610e06565b5085935050505092915050565b60006040830160008301518482036000860152610e5d8282610c99565b91505060208301518482036020860152610e778282610de2565b9150508091505092915050565b60006020820190508181036000830152610e9e8184610e40565b905092915050565b610eaf81610cfe565b8114610eba57600080fd5b50565b600081359050610ecc81610ea6565b92915050565b60038110610edf57600080fd5b50565b600081359050610ef181610ed2565b92915050565b600080600060608486031215610f1057610f0f610a13565b5b6000610f1e86828701610a66565b9350506020610f2f86828701610ebd565b9250506040610f4086828701610ee2565b9150509250925092565b600082825260208201905092915050565b6000610f6682610cd2565b610f708185610f4a565b9350610f7b83610cee565b8060005b83811015610fac578151610f938882610dbd565b9750610f9e83610dd5565b925050600181019050610f7f565b5085935050505092915050565b60006020820190508181036000830152610fd38184610f5b565b905092915050565b600082825260208201905092915050565b7f596f75206e65656420746f20626520746865206f776e6572206f66207468652060008201527f636f6e747261637420666f72207468617420616374696f6e0000000000000000602082015250565b6000611048603883610fdb565b915061105382610fec565b604082019050919050565b600060208201905081810360008301526110778161103b565b9050919050565b7f53747564656e7420616c72656164792065786973747300000000000000000000600082015250565b60006110b4601683610fdb565b91506110bf8261107e565b602082019050919050565b600060208201905081810360008301526110e3816110a7565b9050919050565b7f4e487b7100000000000000000000000000000000000000000000000000000000600052602260045260246000fd5b6000600282049050600182168061113157607f821691505b60208210811415611145576111446110ea565b5b50919050565b7f53747564656e7420646f65736e27742065786973740000000000000000000000600082015250565b6000611181601583610fdb565b915061118c8261114b565b602082019050919050565b600060208201905081810360008301526111b081611174565b9050919050565b7f41206772616465206d75737420626520686967686572206f7220657175616c2060008201527f746f203000000000000000000000000000000000000000000000000000000000602082015250565b6000611213602483610fdb565b915061121e826111b7565b604082019050919050565b6000602082019050818103600083015261124281611206565b9050919050565b7f41206772616465206d757374206265206174206d6f737420657175616c20746f60008201527f2032300000000000000000000000000000000000000000000000000000000000602082015250565b60006112a5602383610fdb565b91506112b082611249565b604082019050919050565b600060208201905081810360008301526112d481611298565b905091905056fea26469706673582212207f49c68300f699106b989a5ed2bedccb1bb8a825504332bcf20227966f02b6b264736f6c634300080b0033",
  "immutableReferences": {},
  "source": "pragma solidity ^0.8.11;\n\n// SPDX-License-Identifier: MIT\n\nimport \"./Owner.sol\";\n\ncontract School is Owner{\n\n  enum Fields { Math, Bio, Info }\n\n  struct Grade {\n    uint points;\n    Fields field;\n  }\n\n  struct Student {\n    string name;\n    Grade[] grades;\n  }\n\n  mapping (address => Student) students;\n\n  constructor() {\n    owner = msg.sender;\n  }\n\n  function addStudent(address _address, string memory _name) public isOwner {\n    require(studentExists(_address) == false , \"Student already exists\");\n\n    students[_address].name = _name;\n  }\n\n  function addGrade(address _address, uint _points, Fields _field) public isOwner{\n    require(studentExists(_address) == true, \"Student doesn't exist\");\n    require(_points >= 0, \"A grade must be higher or equal to 0\");\n    require(_points <= 20, \"A grade must be at most equal to 20\");\n\n    // The enum block the run of the function (without clear warnings...), those lines are useless and never print\n    // require(uint(_field) <= 2, \"A field must be (lesser or equal to 2) : {Math, Bio, Info}\");\n    // require(uint(_field) >= 0, \"A field must be  positive : {Math, Bio, Info}\");\n    // require(isValidField(_field) == true, \"Not a valid field for mark\");\n\n    Grade memory g = Grade(_points, _field);\n    students[_address].grades.push(g);\n  }\n\n  function getStudentGrades(address _address) view public isOwner returns(Grade[] memory) {\n    return students[_address].grades;\n  }\n\n  function getGrades() view public returns(Grade[] memory) {\n    return students[msg.sender].grades;\n  }\n\n  function studentExists(address _address) view private returns(bool) {\n    bytes memory nameOfStudent = bytes(students[_address].name);\n    return nameOfStudent.length > 0;\n  }\n\n  function getStudent(address _address) view public returns(Student memory) {\n    return  students[_address];\n  }\n\n  // function isValidField(string memory _field) pure private returns(bool) {\n  //   string[3] memory validFields = [\"Math\",\"Info\",\"Bio\"];\n  //   uint i;\n  //   for(i = 0; i < validFields.length; i += 1){\n  //     // keccak256 is cheaper than \"StringUtils.equal(\"\",\"\")\"\n  //     if(keccak256(bytes(validFields[i])) == keccak256(bytes(_field))){\n  //       return true;\n  //     }\n  //   }\n  //   return false;\n  // }\n\n}\n",
  "sourcePath": "/home/gary/devs/blockchain/api_blockchain_school/contracts/School.sol",
  "compiler": {
    "name": "solc",
    "version": "0.8.11+commit.d7f03943.Emscripten.clang"
  },
  "schemaVersion": "3.4.16",
  "updatedAt": "2024-08-23T10:12:05.455Z",
  "networkType": "ethereum",
  "devdoc": {
    "kind": "dev",
    "methods": {},
    "version": 1
  },
  "userdoc": {
    "kind": "user",
    "methods": {},
    "version": 1
  }
}